{
  "_format": "hh-sol-artifact-1",
  "contractName": "MolfiAdMarket",
  "sourceName": "contracts/ad-market/MolfiAdMarket.sol",
  "abi": [
    {
      "inputs": [
        {
          "internalType": "address",
          "name": "_usdc",
          "type": "address"
        },
        {
          "internalType": "address",
          "name": "_serverSigner",
          "type": "address"
        },
        {
          "internalType": "address",
          "name": "_treasury",
          "type": "address"
        }
      ],
      "stateMutability": "nonpayable",
      "type": "constructor"
    },
    {
      "inputs": [
        {
          "internalType": "address",
          "name": "owner",
          "type": "address"
        }
      ],
      "name": "OwnableInvalidOwner",
      "type": "error"
    },
    {
      "inputs": [
        {
          "internalType": "address",
          "name": "account",
          "type": "address"
        }
      ],
      "name": "OwnableUnauthorizedAccount",
      "type": "error"
    },
    {
      "inputs": [],
      "name": "ReentrancyGuardReentrantCall",
      "type": "error"
    },
    {
      "inputs": [
        {
          "internalType": "address",
          "name": "token",
          "type": "address"
        }
      ],
      "name": "SafeERC20FailedOperation",
      "type": "error"
    },
    {
      "anonymous": false,
      "inputs": [
        {
          "indexed": true,
          "internalType": "uint256",
          "name": "id",
          "type": "uint256"
        },
        {
          "indexed": true,
          "internalType": "address",
          "name": "marketer",
          "type": "address"
        },
        {
          "indexed": false,
          "internalType": "uint256",
          "name": "refunded",
          "type": "uint256"
        }
      ],
      "name": "CampaignClosed",
      "type": "event"
    },
    {
      "anonymous": false,
      "inputs": [
        {
          "indexed": true,
          "internalType": "uint256",
          "name": "id",
          "type": "uint256"
        },
        {
          "indexed": true,
          "internalType": "address",
          "name": "marketer",
          "type": "address"
        },
        {
          "indexed": false,
          "internalType": "bytes32",
          "name": "contentCid",
          "type": "bytes32"
        },
        {
          "indexed": false,
          "internalType": "uint256",
          "name": "budget",
          "type": "uint256"
        },
        {
          "indexed": false,
          "internalType": "uint256",
          "name": "rewardPerImpression",
          "type": "uint256"
        },
        {
          "indexed": false,
          "internalType": "enum MolfiAdMarket.AdKind",
          "name": "kind",
          "type": "uint8"
        }
      ],
      "name": "CampaignCreated",
      "type": "event"
    },
    {
      "anonymous": false,
      "inputs": [
        {
          "indexed": true,
          "internalType": "uint256",
          "name": "id",
          "type": "uint256"
        },
        {
          "indexed": false,
          "internalType": "uint256",
          "name": "amount",
          "type": "uint256"
        },
        {
          "indexed": false,
          "internalType": "uint256",
          "name": "newBudget",
          "type": "uint256"
        }
      ],
      "name": "CampaignFunded",
      "type": "event"
    },
    {
      "anonymous": false,
      "inputs": [
        {
          "indexed": true,
          "internalType": "bytes32",
          "name": "merkleRoot",
          "type": "bytes32"
        },
        {
          "indexed": false,
          "internalType": "uint256",
          "name": "totalUsdc",
          "type": "uint256"
        },
        {
          "indexed": false,
          "internalType": "uint256",
          "name": "viewerCount",
          "type": "uint256"
        }
      ],
      "name": "ImpressionsAnchored",
      "type": "event"
    },
    {
      "anonymous": false,
      "inputs": [
        {
          "indexed": true,
          "internalType": "address",
          "name": "previousOwner",
          "type": "address"
        },
        {
          "indexed": true,
          "internalType": "address",
          "name": "newOwner",
          "type": "address"
        }
      ],
      "name": "OwnershipTransferred",
      "type": "event"
    },
    {
      "anonymous": false,
      "inputs": [
        {
          "indexed": true,
          "internalType": "address",
          "name": "previous",
          "type": "address"
        },
        {
          "indexed": true,
          "internalType": "address",
          "name": "next",
          "type": "address"
        }
      ],
      "name": "ServerSignerUpdated",
      "type": "event"
    },
    {
      "anonymous": false,
      "inputs": [
        {
          "indexed": true,
          "internalType": "address",
          "name": "user",
          "type": "address"
        },
        {
          "indexed": false,
          "internalType": "uint256",
          "name": "amount",
          "type": "uint256"
        }
      ],
      "name": "UserWithdrew",
      "type": "event"
    },
    {
      "inputs": [
        {
          "internalType": "bytes32",
          "name": "merkleRoot",
          "type": "bytes32"
        },
        {
          "internalType": "bytes32[]",
          "name": "receiptIds",
          "type": "bytes32[]"
        },
        {
          "internalType": "uint256[]",
          "name": "campaignIds",
          "type": "uint256[]"
        },
        {
          "internalType": "address[]",
          "name": "viewers",
          "type": "address[]"
        },
        {
          "internalType": "uint256[]",
          "name": "amounts",
          "type": "uint256[]"
        }
      ],
      "name": "batchAnchor",
      "outputs": [],
      "stateMutability": "nonpayable",
      "type": "function"
    },
    {
      "inputs": [
        {
          "internalType": "uint256",
          "name": "",
          "type": "uint256"
        }
      ],
      "name": "campaigns",
      "outputs": [
        {
          "internalType": "address",
          "name": "marketer",
          "type": "address"
        },
        {
          "internalType": "bytes32",
          "name": "contentCid",
          "type": "bytes32"
        },
        {
          "internalType": "string",
          "name": "contentURI",
          "type": "string"
        },
        {
          "internalType": "uint256",
          "name": "budgetRemaining",
          "type": "uint256"
        },
        {
          "internalType": "uint256",
          "name": "rewardPerImpression",
          "type": "uint256"
        },
        {
          "internalType": "uint64",
          "name": "startTime",
          "type": "uint64"
        },
        {
          "internalType": "uint64",
          "name": "endTime",
          "type": "uint64"
        },
        {
          "internalType": "enum MolfiAdMarket.AdKind",
          "name": "kind",
          "type": "uint8"
        },
        {
          "internalType": "bool",
          "name": "active",
          "type": "bool"
        }
      ],
      "stateMutability": "view",
      "type": "function"
    },
    {
      "inputs": [
        {
          "internalType": "uint256",
          "name": "id",
          "type": "uint256"
        }
      ],
      "name": "closeCampaign",
      "outputs": [],
      "stateMutability": "nonpayable",
      "type": "function"
    },
    {
      "inputs": [
        {
          "internalType": "bytes32",
          "name": "",
          "type": "bytes32"
        }
      ],
      "name": "consumedReceipt",
      "outputs": [
        {
          "internalType": "bool",
          "name": "",
          "type": "bool"
        }
      ],
      "stateMutability": "view",
      "type": "function"
    },
    {
      "inputs": [
        {
          "internalType": "bytes32",
          "name": "contentCid",
          "type": "bytes32"
        },
        {
          "internalType": "string",
          "name": "contentURI",
          "type": "string"
        },
        {
          "internalType": "uint256",
          "name": "budget",
          "type": "uint256"
        },
        {
          "internalType": "uint256",
          "name": "rewardPerImpression",
          "type": "uint256"
        },
        {
          "internalType": "uint64",
          "name": "startTime",
          "type": "uint64"
        },
        {
          "internalType": "uint64",
          "name": "endTime",
          "type": "uint64"
        },
        {
          "internalType": "enum MolfiAdMarket.AdKind",
          "name": "kind",
          "type": "uint8"
        }
      ],
      "name": "createCampaign",
      "outputs": [
        {
          "internalType": "uint256",
          "name": "id",
          "type": "uint256"
        }
      ],
      "stateMutability": "nonpayable",
      "type": "function"
    },
    {
      "inputs": [
        {
          "internalType": "uint256",
          "name": "",
          "type": "uint256"
        }
      ],
      "name": "impressionsServed",
      "outputs": [
        {
          "internalType": "uint256",
          "name": "",
          "type": "uint256"
        }
      ],
      "stateMutability": "view",
      "type": "function"
    },
    {
      "inputs": [],
      "name": "nextCampaignId",
      "outputs": [
        {
          "internalType": "uint256",
          "name": "",
          "type": "uint256"
        }
      ],
      "stateMutability": "view",
      "type": "function"
    },
    {
      "inputs": [],
      "name": "owner",
      "outputs": [
        {
          "internalType": "address",
          "name": "",
          "type": "address"
        }
      ],
      "stateMutability": "view",
      "type": "function"
    },
    {
      "inputs": [
        {
          "internalType": "address",
          "name": "",
          "type": "address"
        }
      ],
      "name": "pendingWithdraw",
      "outputs": [
        {
          "internalType": "uint256",
          "name": "",
          "type": "uint256"
        }
      ],
      "stateMutability": "view",
      "type": "function"
    },
    {
      "inputs": [],
      "name": "platformFeeBps",
      "outputs": [
        {
          "internalType": "uint16",
          "name": "",
          "type": "uint16"
        }
      ],
      "stateMutability": "view",
      "type": "function"
    },
    {
      "inputs": [],
      "name": "renounceOwnership",
      "outputs": [],
      "stateMutability": "nonpayable",
      "type": "function"
    },
    {
      "inputs": [],
      "name": "serverSigner",
      "outputs": [
        {
          "internalType": "address",
          "name": "",
          "type": "address"
        }
      ],
      "stateMutability": "view",
      "type": "function"
    },
    {
      "inputs": [
        {
          "internalType": "uint16",
          "name": "bps",
          "type": "uint16"
        }
      ],
      "name": "setPlatformFeeBps",
      "outputs": [],
      "stateMutability": "nonpayable",
      "type": "function"
    },
    {
      "inputs": [
        {
          "internalType": "address",
          "name": "next",
          "type": "address"
        }
      ],
      "name": "setServerSigner",
      "outputs": [],
      "stateMutability": "nonpayable",
      "type": "function"
    },
    {
      "inputs": [
        {
          "internalType": "address",
          "name": "next",
          "type": "address"
        }
      ],
      "name": "setTreasury",
      "outputs": [],
      "stateMutability": "nonpayable",
      "type": "function"
    },
    {
      "inputs": [
        {
          "internalType": "uint256",
          "name": "id",
          "type": "uint256"
        },
        {
          "internalType": "uint256",
          "name": "amount",
          "type": "uint256"
        }
      ],
      "name": "topUpCampaign",
      "outputs": [],
      "stateMutability": "nonpayable",
      "type": "function"
    },
    {
      "inputs": [
        {
          "internalType": "address",
          "name": "newOwner",
          "type": "address"
        }
      ],
      "name": "transferOwnership",
      "outputs": [],
      "stateMutability": "nonpayable",
      "type": "function"
    },
    {
      "inputs": [],
      "name": "treasury",
      "outputs": [
        {
          "internalType": "address",
          "name": "",
          "type": "address"
        }
      ],
      "stateMutability": "view",
      "type": "function"
    },
    {
      "inputs": [],
      "name": "usdc",
      "outputs": [
        {
          "internalType": "contract IERC20",
          "name": "",
          "type": "address"
        }
      ],
      "stateMutability": "view",
      "type": "function"
    },
    {
      "inputs": [],
      "name": "userWithdraw",
      "outputs": [],
      "stateMutability": "nonpayable",
      "type": "function"
    }
  ],
  "bytecode": "0x60a06040526002805461ffff60a01b1916607d60a31b17905560016003553480156200002a57600080fd5b5060405162001b0138038062001b018339810160408190526200004d91620001b6565b33806200007557604051631e4fbdf760e01b8152600060048201526024015b60405180910390fd5b620000808162000149565b5060017f9b779b17422d0df92223018b32b4d1fa46e071723d6817e2486d003becc55f00556001600160a01b03831615801590620000c657506001600160a01b03821615155b8015620000db57506001600160a01b03811615155b620001125760405162461bcd60e51b81526004016200006c906020808252600490820152637a65726f60e01b604082015260600190565b6001600160a01b03928316608052600180549284166001600160a01b03199384161790556002805491909316911617905562000200565b600080546001600160a01b038381166001600160a01b0319831681178455604051919092169283917f8be0079c531659141344cd1fd0a4f28419497f9722a3daafe3b4186f6b6457e09190a35050565b80516001600160a01b0381168114620001b157600080fd5b919050565b600080600060608486031215620001cc57600080fd5b620001d78462000199565b9250620001e76020850162000199565b9150620001f76040850162000199565b90509250925092565b6080516118c962000238600039600081816101e2015281816104ed0152818161088301528181610a320152610b7601526118c96000f3fe608060405234801561001057600080fd5b506004361061012c5760003560e01c80638da5cb5b116100ad578063e3e9eee411610071578063e3e9eee4146102a8578063eba5b98b146102db578063f0f44260146102ee578063f2fde38b14610301578063f308cfca1461031457600080fd5b80638da5cb5b1461024957806398e862811461025a5780639a22808a1461026d578063a646f9ad1461028d578063b0e1c1e11461029557600080fd5b80633e413bee116100f45780633e413bee146101dd57806361d027b3146102045780636d0c329a14610217578063715018a6146102385780637903a7561461024057600080fd5b8063141961bc14610131578063168db2b21461016257806322dcd13e1461017757806331af19081461019f5780633bc1f7b3146101ca575b600080fd5b61014461013f3660046112b6565b610334565b60405161015999989796959493929190611307565b60405180910390f35b6101756101703660046113c4565b610426565b005b60025461018c90600160a01b900461ffff1681565b60405161ffff9091168152602001610159565b6001546101b2906001600160a01b031681565b6040516001600160a01b039091168152602001610159565b6101756101d83660046113e6565b610578565b6101b27f000000000000000000000000000000000000000000000000000000000000000081565b6002546101b2906001600160a01b031681565b61022a61022536600461143c565b6105e2565b604051908152602001610159565b610175610916565b61022a60035481565b6000546001600160a01b03166101b2565b6101756102683660046114fc565b61092a565b61022a61027b3660046112b6565b60076020526000908152604090205481565b6101756109cd565b6101756102a33660046112b6565b610aae565b6102cb6102b63660046112b6565b60056020526000908152604090205460ff1681565b6040519015158152602001610159565b6101756102e9366004611570565b610bf0565b6101756102fc3660046114fc565b610ffb565b61017561030f3660046114fc565b611064565b61022a6103223660046114fc565b60066020526000908152604090205481565b6004602052600090815260409020805460018201546002830180546001600160a01b039093169391926103669061163f565b80601f01602080910402602001604051908101604052809291908181526020018280546103929061163f565b80156103df5780601f106103b4576101008083540402835291602001916103df565b820191906000526020600020905b8154815290600101906020018083116103c257829003601f168201915b50505060038401546004850154600590950154939490939092506001600160401b038082169250600160401b8204169060ff600160801b8204811691600160881b90041689565b61042e61109f565b600082815260046020526040902080546001600160a01b031633146104825760405162461bcd60e51b815260206004820152600560248201526437bbb732b960d91b60448201526064015b60405180910390fd5b6005810154600160881b900460ff166104c65760405162461bcd60e51b815260206004820152600660248201526518db1bdcd95960d21b6044820152606401610479565b818160030160008282546104da919061168f565b9091555061051590506001600160a01b037f0000000000000000000000000000000000000000000000000000000000000000163330856110bb565b827f42a74499fc8265a526ec8ab4b3e4a4a06e50ef92c084b2634b356f72a5ee44af838360030154604051610554929190918252602082015260400190565b60405180910390a250610574600160008051602061187483398151915255565b5050565b6105806110f7565b6107d08161ffff1611156105c05760405162461bcd60e51b81526020600482015260076024820152666d61782032302560c81b6044820152606401610479565b6002805461ffff909216600160a01b0261ffff60a01b19909216919091179055565b60006105ec61109f565b6000861180156105fc5750600085115b6106315760405162461bcd60e51b8152602060048201526006602482015265185b5bdd5b9d60d21b6044820152606401610479565b858511156106715760405162461bcd60e51b815260206004820152600d60248201526c1c995dd85c990f989d5919d95d609a1b6044820152606401610479565b836001600160401b0316836001600160401b031611801561069a575042836001600160401b0316115b6106cf5760405162461bcd60e51b81526004016104799060208082526004908201526374696d6560e01b604082015260600190565b600380549060006106df836116a8565b919050559050604051806101200160405280336001600160a01b031681526020018a815260200189898080601f01602080910402602001604051908101604052809392919081815260200183838082843760009201919091525050509082525060208101889052604081018790526001600160401b0380871660608301528516608082015260a001836002811115610779576107796112cf565b815260016020918201819052600084815260048352604090819020845181546001600160a01b0319166001600160a01b03909116178155928401519183019190915582015160028201906107cd9082611727565b50606082015160038201556080820151600482015560a082015160058201805460c08501516001600160401b03908116600160401b026fffffffffffffffffffffffffffffffff199092169316929092179190911780825560e0840151919060ff60801b1916600160801b83600281111561084a5761084a6112cf565b0217905550610100919091015160059091018054911515600160881b0260ff60881b199092169190911790556108ab6001600160a01b037f0000000000000000000000000000000000000000000000000000000000000000163330896110bb565b336001600160a01b0316817f4cc21cb9e80d9959effcd76b128c00e1a4a44b42a1fd39ede26a8853de35edea8b8989876040516108eb94939291906117e6565b60405180910390a361090a600160008051602061187483398151915255565b98975050505050505050565b61091e6110f7565b6109286000611124565b565b6109326110f7565b6001600160a01b0381166109715760405162461bcd60e51b8152600401610479906020808252600490820152637a65726f60e01b604082015260600190565b6001546040516001600160a01b038084169216907f8aca81b772b289537bcc2c109e400ab186c91216ba0e41570dd28dfff23dddad90600090a3600180546001600160a01b0319166001600160a01b0392909216919091179055565b6109d561109f565b3360009081526006602052604090205480610a1c5760405162461bcd60e51b81526020600482015260076024820152666e6f7468696e6760c81b6044820152606401610479565b33600081815260066020526040812055610a61907f00000000000000000000000000000000000000000000000000000000000000006001600160a01b03169083611174565b60405181815233907f60940a45682dd211584724a922396732f11d82de250ddce40f7cdc3dc58058659060200160405180910390a250610928600160008051602061187483398151915255565b610ab661109f565b600081815260046020526040902080546001600160a01b03163314610b055760405162461bcd60e51b815260206004820152600560248201526437bbb732b960d91b6044820152606401610479565b6005810154600160881b900460ff16610b495760405162461bcd60e51b815260206004820152600660248201526518db1bdcd95960d21b6044820152606401610479565b60058101805460ff60881b1916905560038101805460009091558015610b9d57610b9d6001600160a01b037f0000000000000000000000000000000000000000000000000000000000000000163383611174565b604051818152339084907fe120b15313f47b70c9196f36751e63aa50b67cf9316c6b5d695b4ad33ce2076f9060200160405180910390a35050610bed600160008051602061187483398151915255565b50565b6001546001600160a01b03163314610c375760405162461bcd60e51b815260206004820152600a6024820152693737ba1039b2b93b32b960b11b6044820152606401610479565b610c3f61109f565b828181148015610c4e57508086145b8015610c5957508088145b610c8b5760405162461bcd60e51b81526020600482015260036024820152623632b760e91b6044820152606401610479565b6000805b82811015610f9b5760008b8b83818110610cab57610cab611811565b60209081029290920135600081815260059093526040909220549192505060ff1615610d075760405162461bcd60e51b815260206004820152600b60248201526a191d5c081c9958d95a5c1d60aa1b6044820152606401610479565b6000818152600560205260408120805460ff191660011790556004818c8c86818110610d3557610d35611811565b90506020020135815260200190815260200160002090508060050160119054906101000a900460ff16610d9c5760405162461bcd60e51b815260206004820152600f60248201526e18d85b5c185a59db8818db1bdcd959608a1b6044820152606401610479565b868684818110610dae57610dae611811565b9050602002013581600301541015610df15760405162461bcd60e51b8152602060048201526006602482015265189d5919d95d60d21b6044820152606401610479565b868684818110610e0357610e03611811565b90506020020135816003016000828254610e1d9190611827565b9091555060019050600760008d8d87818110610e3b57610e3b611811565b9050602002013581526020019081526020016000206000828254610e5f919061168f565b909155505060025460009061271090600160a01b900461ffff16898987818110610e8b57610e8b611811565b90506020020135610e9c919061183a565b610ea69190611851565b9050600081898987818110610ebd57610ebd611811565b90506020020135610ece9190611827565b905080600660008d8d89818110610ee757610ee7611811565b9050602002016020810190610efc91906114fc565b6001600160a01b03166001600160a01b031681526020019081526020016000206000828254610f2b919061168f565b90915550508115610f66576002546001600160a01b031660009081526006602052604081208054849290610f6090849061168f565b90915550505b888886818110610f7857610f78611811565b9050602002013586610f8a919061168f565b955050505050806001019050610c8f565b5060408051828152602081018490528c917fecae3c678d91c15581771844035dffbcc85bad8333c436123cef007c24e81a36910160405180910390a25050610ff0600160008051602061187483398151915255565b505050505050505050565b6110036110f7565b6001600160a01b0381166110425760405162461bcd60e51b8152600401610479906020808252600490820152637a65726f60e01b604082015260600190565b600280546001600160a01b0319166001600160a01b0392909216919091179055565b61106c6110f7565b6001600160a01b03811661109657604051631e4fbdf760e01b815260006004820152602401610479565b610bed81611124565b6110a76111ae565b600260008051602061187483398151915255565b6110c98484848460016111de565b6110f157604051635274afe760e01b81526001600160a01b0385166004820152602401610479565b50505050565b6000546001600160a01b031633146109285760405163118cdaa760e01b8152336004820152602401610479565b600080546001600160a01b038381166001600160a01b0319831681178455604051919092169283917f8be0079c531659141344cd1fd0a4f28419497f9722a3daafe3b4186f6b6457e09190a35050565b6111818383836001611250565b6111a957604051635274afe760e01b81526001600160a01b0384166004820152602401610479565b505050565b6000805160206118748339815191525460020361092857604051633ee5aeb560e01b815260040160405180910390fd5b6040516323b872dd60e01b60008181526001600160a01b038781166004528616602452604485905291602083606481808c5af19250600160005114831661123e578383151615611231573d6000823e3d81fd5b6000883b113d1516831692505b60405250600060605295945050505050565b60405163a9059cbb60e01b60008181526001600160a01b038616600452602485905291602083604481808b5af1925060016000511483166112aa57838315161561129d573d6000823e3d81fd5b6000873b113d1516831692505b60405250949350505050565b6000602082840312156112c857600080fd5b5035919050565b634e487b7160e01b600052602160045260246000fd5b6003811061130357634e487b7160e01b600052602160045260246000fd5b9052565b6001600160a01b038a16815260208082018a905261012060408301819052895190830181905260009182915b80831015611352578b8301820151858401610140015291810191611333565b6101409250600083828701015282601f19601f830116860101935050505087606083015286608083015261139160a08301876001600160401b03169052565b6001600160401b03851660c08301526113ad60e08301856112e5565b8215156101008301529a9950505050505050505050565b600080604083850312156113d757600080fd5b50508035926020909101359150565b6000602082840312156113f857600080fd5b813561ffff8116811461140a57600080fd5b9392505050565b80356001600160401b038116811461142857600080fd5b919050565b80356003811061142857600080fd5b60008060008060008060008060e0898b03121561145857600080fd5b8835975060208901356001600160401b038082111561147657600080fd5b818b0191508b601f83011261148a57600080fd5b81358181111561149957600080fd5b8c60208285010111156114ab57600080fd5b60208301995080985050505060408901359450606089013593506114d160808a01611411565b92506114df60a08a01611411565b91506114ed60c08a0161142d565b90509295985092959890939650565b60006020828403121561150e57600080fd5b81356001600160a01b038116811461140a57600080fd5b60008083601f84011261153757600080fd5b5081356001600160401b0381111561154e57600080fd5b6020830191508360208260051b850101111561156957600080fd5b9250929050565b600080600080600080600080600060a08a8c03121561158e57600080fd5b8935985060208a01356001600160401b03808211156115ac57600080fd5b6115b88d838e01611525565b909a50985060408c01359150808211156115d157600080fd5b6115dd8d838e01611525565b909850965060608c01359150808211156115f657600080fd5b6116028d838e01611525565b909650945060808c013591508082111561161b57600080fd5b506116288c828d01611525565b915080935050809150509295985092959850929598565b600181811c9082168061165357607f821691505b60208210810361167357634e487b7160e01b600052602260045260246000fd5b50919050565b634e487b7160e01b600052601160045260246000fd5b808201808211156116a2576116a2611679565b92915050565b6000600182016116ba576116ba611679565b5060010190565b634e487b7160e01b600052604160045260246000fd5b601f8211156111a9576000816000526020600020601f850160051c810160208610156117005750805b601f850160051c820191505b8181101561171f5782815560010161170c565b505050505050565b81516001600160401b03811115611740576117406116c1565b6117548161174e845461163f565b846116d7565b602080601f83116001811461178957600084156117715750858301515b600019600386901b1c1916600185901b17855561171f565b600085815260208120601f198616915b828110156117b857888601518255948401946001909101908401611799565b50858210156117d65787850151600019600388901b60f8161c191681555b5050505050600190811b01905550565b84815260208101849052604081018390526080810161180860608301846112e5565b95945050505050565b634e487b7160e01b600052603260045260246000fd5b818103818111156116a2576116a2611679565b80820281158282048414176116a2576116a2611679565b60008261186e57634e487b7160e01b600052601260045260246000fd5b50049056fe9b779b17422d0df92223018b32b4d1fa46e071723d6817e2486d003becc55f00a26469706673582212205ef9a49a1bef2953ab2cdbcb1c36f509d6c1282f6840f9aa8ee22c217063e19764736f6c63430008180033",
  "linkReferences": {},
  "deployedLinkReferences": {}
}